{
  "contractName": "SmartProjects",
  "abi": [
    {
      "inputs": [],
      "payable": false,
      "stateMutability": "nonpayable",
      "type": "constructor"
    },
    {
      "anonymous": false,
      "inputs": [
        {
          "indexed": true,
          "name": "entity",
          "type": "address"
        },
        {
          "indexed": false,
          "name": "projectName",
          "type": "bytes32"
        }
      ],
      "name": "AddProject",
      "type": "event"
    },
    {
      "anonymous": false,
      "inputs": [
        {
          "indexed": true,
          "name": "entity",
          "type": "address"
        },
        {
          "indexed": false,
          "name": "projectName",
          "type": "bytes32"
        }
      ],
      "name": "RemoveProject",
      "type": "event"
    },
    {
      "anonymous": false,
      "inputs": [
        {
          "indexed": true,
          "name": "entity",
          "type": "address"
        },
        {
          "indexed": false,
          "name": "projectName",
          "type": "bytes32"
        }
      ],
      "name": "JoinProject",
      "type": "event"
    },
    {
      "anonymous": false,
      "inputs": [
        {
          "indexed": true,
          "name": "entity",
          "type": "address"
        },
        {
          "indexed": false,
          "name": "projectName",
          "type": "bytes32"
        }
      ],
      "name": "LeaveProject",
      "type": "event"
    },
    {
      "constant": false,
      "inputs": [
        {
          "name": "projectName",
          "type": "bytes32"
        }
      ],
      "name": "addProject",
      "outputs": [],
      "payable": false,
      "stateMutability": "nonpayable",
      "type": "function"
    },
    {
      "constant": false,
      "inputs": [
        {
          "name": "projectName",
          "type": "bytes32"
        }
      ],
      "name": "removeProject",
      "outputs": [],
      "payable": false,
      "stateMutability": "nonpayable",
      "type": "function"
    },
    {
      "constant": false,
      "inputs": [
        {
          "name": "projectName",
          "type": "bytes32"
        }
      ],
      "name": "joinProject",
      "outputs": [],
      "payable": false,
      "stateMutability": "nonpayable",
      "type": "function"
    },
    {
      "constant": false,
      "inputs": [
        {
          "name": "projectName",
          "type": "bytes32"
        }
      ],
      "name": "leaveProject",
      "outputs": [],
      "payable": false,
      "stateMutability": "nonpayable",
      "type": "function"
    }
  ],
  "bytecode": "0x608060405234801561001057600080fd5b5061040c806100206000396000f3fe608060405234801561001057600080fd5b506004361061004c5760003560e01c806303f47d0e1461005157806344144dda1461007f5780635d39fa03146100ad578063bd9f9cf8146100db575b600080fd5b61007d6004803603602081101561006757600080fd5b8101908080359060200190929190505050610109565b005b6100ab6004803603602081101561009557600080fd5b81019080803590602001909291905050506101db565b005b6100d9600480360360208110156100c357600080fd5b8101908080359060200190929190505050610268565b005b610107600480360360208110156100f157600080fd5b8101908080359060200190929190505050610324565b005b60405180602001604052803373ffffffffffffffffffffffffffffffffffffffff1681525060008083815260200190815260200160002060008201518160000160006101000a81548173ffffffffffffffffffffffffffffffffffffffff021916908373ffffffffffffffffffffffffffffffffffffffff1602179055509050503373ffffffffffffffffffffffffffffffffffffffff167f5c97ced72f6159a8984bc18b571ff4b1c1cf7123945beb3a0f4679dd333ea73b826040518082815260200191505060405180910390a250565b600080828152602001908152602001600020600080820160006101000a81549073ffffffffffffffffffffffffffffffffffffffff021916905550503373ffffffffffffffffffffffffffffffffffffffff167fac9097945f9d1f2558230cf82e01ca479d818bbdd1b563a6167e38b492d77021826040518082815260200191505060405180910390a250565b600160008083815260200190815260200160002060010160003373ffffffffffffffffffffffffffffffffffffffff1673ffffffffffffffffffffffffffffffffffffffff16815260200190815260200160002060006101000a81548160ff0219169083151502179055503373ffffffffffffffffffffffffffffffffffffffff167ff6720607997551749bd5ad2c7a9f5c922a4856602366ece31ffc2e44912b214d826040518082815260200191505060405180910390a250565b600080600083815260200190815260200160002060010160003373ffffffffffffffffffffffffffffffffffffffff1673ffffffffffffffffffffffffffffffffffffffff16815260200190815260200160002060006101000a81548160ff0219169083151502179055503373ffffffffffffffffffffffffffffffffffffffff167ffcc9993a7a60bc74d027573a4e21f7ab6eef75a3e5ac4c31fd6877db5ba17a94826040518082815260200191505060405180910390a25056fea165627a7a72305820f950e6ffd5b54afebfdde078c930d9808028c9ad31993cde293d6298ba3914a80029",
  "source": "pragma solidity ^0.5.0;\n\ncontract SmartProjects {\n\n  constructor() public {\n  }\n\n    mapping(bytes32 => Project) projects;\n\n    struct Project {\n        address organizer;\n        mapping(address => bool) members;\n\n    }\n\n    event AddProject(address indexed entity, bytes32 projectName);\n    event RemoveProject(address indexed entity, bytes32 projectName);\n    event JoinProject(address indexed entity, bytes32 projectName);\n    event LeaveProject(address indexed entity, bytes32 projectName);\n\n    function addProject(bytes32 projectName) public {\n        projects[projectName] = Project(msg.sender);\n        emit AddProject(msg.sender, projectName);\n    }\n\n    function removeProject(bytes32 projectName) public {\n        // require(!!projects[projectName], \"Project does not exist\");\n        // require msg.sender == project.organizer\n        delete projects[projectName];\n        emit RemoveProject(msg.sender, projectName);\n    }\n\n    function joinProject(bytes32 projectName) public {\n        // require(!!projects[projectName], \"Project does not exist\");\n        projects[projectName].members[msg.sender] = true;\n        emit JoinProject(msg.sender, projectName);\n    }\n\n    function leaveProject(bytes32 projectName) public {\n        // require(!!projects[projectName], \"Project does not exist\");\n        projects[projectName].members[msg.sender] = false;\n        emit LeaveProject(msg.sender, projectName);\n    }\n}\n",
  "sourcePath": "/home/sem/Projects/smart-projects-drizzle/contracts/SmartProjects.sol",
  "compiler": {
    "name": "solc",
    "version": "0.5.8+commit.23d335f2.Emscripten.clang"
  },
  "schemaVersion": "3.0.11",
  "updatedAt": "2019-08-13T21:56:23.226Z",
  "devdoc": {
    "methods": {}
  },
  "userdoc": {
    "methods": {}
  }
}